{
  "contractName": "buyer",
  "abi": [
    {
      "inputs": [
        {
          "internalType": "address",
          "name": "_seller",
          "type": "address"
        }
      ],
      "name": "setSeller",
      "outputs": [],
      "stateMutability": "nonpayable",
      "type": "function"
    },
    {
      "inputs": [
        {
          "internalType": "address",
          "name": "_logistic",
          "type": "address"
        }
      ],
      "name": "setlogistic",
      "outputs": [],
      "stateMutability": "nonpayable",
      "type": "function"
    },
    {
      "inputs": [
        {
          "internalType": "uint256",
          "name": "id",
          "type": "uint256"
        }
      ],
      "name": "avalable_product",
      "outputs": [
        {
          "internalType": "bool",
          "name": "",
          "type": "bool"
        },
        {
          "internalType": "string",
          "name": "",
          "type": "string"
        },
        {
          "internalType": "uint256",
          "name": "",
          "type": "uint256"
        },
        {
          "internalType": "string",
          "name": "",
          "type": "string"
        },
        {
          "internalType": "address",
          "name": "",
          "type": "address"
        }
      ],
      "stateMutability": "view",
      "type": "function",
      "constant": true
    },
    {
      "inputs": [
        {
          "internalType": "uint256",
          "name": "pid",
          "type": "uint256"
        },
        {
          "internalType": "string",
          "name": "name",
          "type": "string"
        },
        {
          "internalType": "uint40",
          "name": "ph",
          "type": "uint40"
        },
        {
          "internalType": "string",
          "name": "_mail",
          "type": "string"
        },
        {
          "internalType": "string",
          "name": "_location",
          "type": "string"
        },
        {
          "internalType": "address",
          "name": "f_f",
          "type": "address"
        }
      ],
      "name": "purchase",
      "outputs": [],
      "stateMutability": "payable",
      "type": "function",
      "payable": true
    },
    {
      "inputs": [
        {
          "internalType": "uint256",
          "name": "oid",
          "type": "uint256"
        }
      ],
      "name": "send_d_fees",
      "outputs": [],
      "stateMutability": "payable",
      "type": "function",
      "payable": true
    },
    {
      "inputs": [
        {
          "internalType": "uint256",
          "name": "pid",
          "type": "uint256"
        }
      ],
      "name": "orderdetails",
      "outputs": [
        {
          "internalType": "bool",
          "name": "",
          "type": "bool"
        },
        {
          "internalType": "uint256",
          "name": "",
          "type": "uint256"
        },
        {
          "internalType": "address",
          "name": "",
          "type": "address"
        },
        {
          "internalType": "string",
          "name": "",
          "type": "string"
        },
        {
          "internalType": "address",
          "name": "",
          "type": "address"
        },
        {
          "internalType": "bool",
          "name": "",
          "type": "bool"
        }
      ],
      "stateMutability": "nonpayable",
      "type": "function"
    },
    {
      "inputs": [
        {
          "internalType": "uint256",
          "name": "pid",
          "type": "uint256"
        }
      ],
      "name": "tracking",
      "outputs": [
        {
          "internalType": "string",
          "name": "",
          "type": "string"
        },
        {
          "internalType": "string",
          "name": "",
          "type": "string"
        },
        {
          "internalType": "string",
          "name": "",
          "type": "string"
        },
        {
          "internalType": "string",
          "name": "",
          "type": "string"
        },
        {
          "internalType": "bool",
          "name": "",
          "type": "bool"
        }
      ],
      "stateMutability": "view",
      "type": "function",
      "constant": true
    },
    {
      "inputs": [
        {
          "internalType": "uint256",
          "name": "pid",
          "type": "uint256"
        }
      ],
      "name": "order_recived",
      "outputs": [
        {
          "internalType": "bool",
          "name": "",
          "type": "bool"
        }
      ],
      "stateMutability": "nonpayable",
      "type": "function"
    },
    {
      "inputs": [
        {
          "internalType": "uint256",
          "name": "pid",
          "type": "uint256"
        }
      ],
      "name": "order_recived1",
      "outputs": [
        {
          "internalType": "bool",
          "name": "",
          "type": "bool"
        }
      ],
      "stateMutability": "view",
      "type": "function",
      "constant": true
    }
  ],
  "bytecode": "0x60806040526040518060400160405280600d81526020017f6f72646572207265636976656400000000000000000000000000000000000000815250600290816200004a9190620002d9565b503480156200005857600080fd5b50620003c0565b600081519050919050565b7f4e487b7100000000000000000000000000000000000000000000000000000000600052604160045260246000fd5b7f4e487b7100000000000000000000000000000000000000000000000000000000600052602260045260246000fd5b60006002820490506001821680620000e157607f821691505b602082108103620000f757620000f662000099565b5b50919050565b60008190508160005260206000209050919050565b60006020601f8301049050919050565b600082821b905092915050565b600060088302620001617fffffffffffffffffffffffffffffffffffffffffffffffffffffffffffffffff8262000122565b6200016d868362000122565b95508019841693508086168417925050509392505050565b6000819050919050565b6000819050919050565b6000620001ba620001b4620001ae8462000185565b6200018f565b62000185565b9050919050565b6000819050919050565b620001d68362000199565b620001ee620001e582620001c1565b8484546200012f565b825550505050565b600090565b62000205620001f6565b62000212818484620001cb565b505050565b5b818110156200023a576200022e600082620001fb565b60018101905062000218565b5050565b601f82111562000289576200025381620000fd565b6200025e8462000112565b810160208510156200026e578190505b620002866200027d8562000112565b83018262000217565b50505b505050565b600082821c905092915050565b6000620002ae600019846008026200028e565b1980831691505092915050565b6000620002c983836200029b565b9150826002028217905092915050565b620002e4826200005f565b67ffffffffffffffff8111156200030057620002ff6200006a565b5b6200030c8254620000c8565b620003198282856200023e565b600060209050601f8311600181146200035157600084156200033c578287015190505b620003488582620002bb565b865550620003b8565b601f1984166200036186620000fd565b60005b828110156200038b5784890151825560018201915060208501945060208101905062000364565b86831015620003ab5784890151620003a7601f8916826200029b565b8355505b6001600288020188555050505b505050505050565b61176d80620003d06000396000f3fe6080604052600436106100855760003560e01c8063a218d9fe11610059578063a218d9fe14610152578063c29bec941461018f578063cbd38202146101d0578063e99d2866146101ec578063f7249f191461021557610085565b8062d1450f1461008a578063622d2347146100a65780638d72f063146100e857806399c4acef14610111575b600080fd5b6100a4600480360381019061009f9190610b3f565b610252565b005b3480156100b257600080fd5b506100cd60048036038101906100c89190610b3f565b6103fc565b6040516100df96959493929190610c67565b60405180910390f35b3480156100f457600080fd5b5061010f600480360381019061010a9190610cfb565b6104bc565b005b34801561011d57600080fd5b5061013860048036038101906101339190610b3f565b610500565b604051610149959493929190610d28565b60405180910390f35b34801561015e57600080fd5b5061017960048036038101906101749190610b3f565b610660565b6040516101869190610d97565b60405180910390f35b34801561019b57600080fd5b506101b660048036038101906101b19190610b3f565b61068d565b6040516101c7959493929190610db2565b60405180910390f35b6101ea60048036038101906101e59190610f85565b61074a565b005b3480156101f857600080fd5b50610213600480360381019061020e9190610cfb565b610a56565b005b34801561022157600080fd5b5061023c60048036038101906102379190610b3f565b610a99565b6040516102499190610d97565b60405180910390f35b60003390506064341461029a576040517f08c379a0000000000000000000000000000000000000000000000000000000008152600401610291906110d8565b60405180910390fd5b6000600160009054906101000a900473ffffffffffffffffffffffffffffffffffffffff1673ffffffffffffffffffffffffffffffffffffffff16346040516102e290611129565b60006040518083038185875af1925050503d806000811461031f576040519150601f19603f3d011682016040523d82523d6000602084013e610324565b606091505b5050905080610368576040517f08c379a000000000000000000000000000000000000000000000000000000000815260040161035f9061118a565b60405180910390fd5b600160009054906101000a900473ffffffffffffffffffffffffffffffffffffffff1673ffffffffffffffffffffffffffffffffffffffff1663411d08be84846040518363ffffffff1660e01b81526004016103c59291906111aa565b600060405180830381600087803b1580156103df57600080fd5b505af11580156103f3573d6000803e3d6000fd5b50505050505050565b6000806000606060008060008054906101000a900473ffffffffffffffffffffffffffffffffffffffff1673ffffffffffffffffffffffffffffffffffffffff1663622d2347886040518263ffffffff1660e01b815260040161045f91906111d3565b6000604051808303816000875af115801561047e573d6000803e3d6000fd5b505050506040513d6000823e3d601f19601f820116820180604052508101906104a791906112b4565b95509550955095509550955091939550919395565b80600160006101000a81548173ffffffffffffffffffffffffffffffffffffffff021916908373ffffffffffffffffffffffffffffffffffffffff16021790555050565b6060806060806000806000806000600160009054906101000a900473ffffffffffffffffffffffffffffffffffffffff1673ffffffffffffffffffffffffffffffffffffffff166399c4acef8b6040518263ffffffff1660e01b815260040161056991906111d3565b600060405180830381865afa158015610586573d6000803e3d6000fd5b505050506040513d6000823e3d601f19601f820116820180604052508101906105af919061135d565b935093509350935060011515600360008c815260200190815260200160002060000160009054906101000a900460ff16151514610621576040517f08c379a0000000000000000000000000000000000000000000000000000000008152600401610618906114a6565b60405180910390fd5b83838383600360008f815260200190815260200160002060000160009054906101000a900460ff16985098509850985098505050505091939590929450565b60006003600083815260200190815260200160002060000160009054906101000a900460ff169050919050565b600060606000606060008060009054906101000a900473ffffffffffffffffffffffffffffffffffffffff1673ffffffffffffffffffffffffffffffffffffffff1663eafd4bbd876040518263ffffffff1660e01b81526004016106f191906111d3565b600060405180830381865afa15801561070e573d6000803e3d6000fd5b505050506040513d6000823e3d601f19601f8201168201806040525081019061073791906114c6565b9450945094509450945091939590929450565b600033905060008060009054906101000a900473ffffffffffffffffffffffffffffffffffffffff1673ffffffffffffffffffffffffffffffffffffffff1663db3d1cba896040518263ffffffff1660e01b81526004016107ab91906111d3565b602060405180830381865afa1580156107c8573d6000803e3d6000fd5b505050506040513d601f19601f820116820180604052508101906107ec9190611579565b9050604051806020016040528060001515815250600360008a815260200190815260200160002060008201518160000160006101000a81548160ff021916908315150217905550905050600073ffffffffffffffffffffffffffffffffffffffff168373ffffffffffffffffffffffffffffffffffffffff16036108a5576040517f08c379a000000000000000000000000000000000000000000000000000000000815260040161089c906115f2565b60405180910390fd5b8034146108e7576040517f08c379a00000000000000000000000000000000000000000000000000000000081526004016108de90611684565b60405180910390fd5b60008060009054906101000a900473ffffffffffffffffffffffffffffffffffffffff1673ffffffffffffffffffffffffffffffffffffffff163460405161092e90611129565b60006040518083038185875af1925050503d806000811461096b576040519150601f19603f3d011682016040523d82523d6000602084013e610970565b606091505b50509050806109b4576040517f08c379a00000000000000000000000000000000000000000000000000000000081526004016109ab9061118a565b60405180910390fd5b60008054906101000a900473ffffffffffffffffffffffffffffffffffffffff1673ffffffffffffffffffffffffffffffffffffffff16638f8840ae8a858b8b8b8b8b6040518863ffffffff1660e01b8152600401610a1997969594939291906116b3565b600060405180830381600087803b158015610a3357600080fd5b505af1158015610a47573d6000803e3d6000fd5b50505050505050505050505050565b806000806101000a81548173ffffffffffffffffffffffffffffffffffffffff021916908373ffffffffffffffffffffffffffffffffffffffff16021790555050565b600060016003600084815260200190815260200160002060000160006101000a81548160ff0219169083151502179055506003600083815260200190815260200160002060000160009054906101000a900460ff169050919050565b6000604051905090565b600080fd5b600080fd5b6000819050919050565b610b1c81610b09565b8114610b2757600080fd5b50565b600081359050610b3981610b13565b92915050565b600060208284031215610b5557610b54610aff565b5b6000610b6384828501610b2a565b91505092915050565b60008115159050919050565b610b8181610b6c565b82525050565b610b9081610b09565b82525050565b600073ffffffffffffffffffffffffffffffffffffffff82169050919050565b6000610bc182610b96565b9050919050565b610bd181610bb6565b82525050565b600081519050919050565b600082825260208201905092915050565b60005b83811015610c11578082015181840152602081019050610bf6565b60008484015250505050565b6000601f19601f8301169050919050565b6000610c3982610bd7565b610c438185610be2565b9350610c53818560208601610bf3565b610c5c81610c1d565b840191505092915050565b600060c082019050610c7c6000830189610b78565b610c896020830188610b87565b610c966040830187610bc8565b8181036060830152610ca88186610c2e565b9050610cb76080830185610bc8565b610cc460a0830184610b78565b979650505050505050565b610cd881610bb6565b8114610ce357600080fd5b50565b600081359050610cf581610ccf565b92915050565b600060208284031215610d1157610d10610aff565b5b6000610d1f84828501610ce6565b91505092915050565b600060a0820190508181036000830152610d428188610c2e565b90508181036020830152610d568187610c2e565b90508181036040830152610d6a8186610c2e565b90508181036060830152610d7e8185610c2e565b9050610d8d6080830184610b78565b9695505050505050565b6000602082019050610dac6000830184610b78565b92915050565b600060a082019050610dc76000830188610b78565b8181036020830152610dd98187610c2e565b9050610de86040830186610b87565b8181036060830152610dfa8185610c2e565b9050610e096080830184610bc8565b9695505050505050565b600080fd5b600080fd5b7f4e487b7100000000000000000000000000000000000000000000000000000000600052604160045260246000fd5b610e5582610c1d565b810181811067ffffffffffffffff82111715610e7457610e73610e1d565b5b80604052505050565b6000610e87610af5565b9050610e938282610e4c565b919050565b600067ffffffffffffffff821115610eb357610eb2610e1d565b5b610ebc82610c1d565b9050602081019050919050565b82818337600083830152505050565b6000610eeb610ee684610e98565b610e7d565b905082815260208101848484011115610f0757610f06610e18565b5b610f12848285610ec9565b509392505050565b600082601f830112610f2f57610f2e610e13565b5b8135610f3f848260208601610ed8565b91505092915050565b600064ffffffffff82169050919050565b610f6281610f48565b8114610f6d57600080fd5b50565b600081359050610f7f81610f59565b92915050565b60008060008060008060c08789031215610fa257610fa1610aff565b5b6000610fb089828a01610b2a565b965050602087013567ffffffffffffffff811115610fd157610fd0610b04565b5b610fdd89828a01610f1a565b9550506040610fee89828a01610f70565b945050606087013567ffffffffffffffff81111561100f5761100e610b04565b5b61101b89828a01610f1a565b935050608087013567ffffffffffffffff81111561103c5761103b610b04565b5b61104889828a01610f1a565b92505060a061105989828a01610ce6565b9150509295509295509295565b7f417070726f707261697465206574686572206e6f742073656e7420746f20667260008201527f6967687400000000000000000000000000000000000000000000000000000000602082015250565b60006110c2602483610be2565b91506110cd82611066565b604082019050919050565b600060208201905081810360008301526110f1816110b5565b9050919050565b600081905092915050565b50565b60006111136000836110f8565b915061111e82611103565b600082019050919050565b600061113482611106565b9150819050919050565b7f4661696c656420746f2073656e64204574686572000000000000000000000000600082015250565b6000611174601483610be2565b915061117f8261113e565b602082019050919050565b600060208201905081810360008301526111a381611167565b9050919050565b60006040820190506111bf6000830185610b87565b6111cc6020830184610bc8565b9392505050565b60006020820190506111e86000830184610b87565b92915050565b6111f781610b6c565b811461120257600080fd5b50565b600081519050611214816111ee565b92915050565b60008151905061122981610b13565b92915050565b60008151905061123e81610ccf565b92915050565b600061125761125284610e98565b610e7d565b90508281526020810184848401111561127357611272610e18565b5b61127e848285610bf3565b509392505050565b600082601f83011261129b5761129a610e13565b5b81516112ab848260208601611244565b91505092915050565b60008060008060008060c087890312156112d1576112d0610aff565b5b60006112df89828a01611205565b96505060206112f089828a0161121a565b955050604061130189828a0161122f565b945050606087015167ffffffffffffffff81111561132257611321610b04565b5b61132e89828a01611286565b935050608061133f89828a0161122f565b92505060a061135089828a01611205565b9150509295509295509295565b6000806000806080858703121561137757611376610aff565b5b600085015167ffffffffffffffff81111561139557611394610b04565b5b6113a187828801611286565b945050602085015167ffffffffffffffff8111156113c2576113c1610b04565b5b6113ce87828801611286565b935050604085015167ffffffffffffffff8111156113ef576113ee610b04565b5b6113fb87828801611286565b925050606085015167ffffffffffffffff81111561141c5761141b610b04565b5b61142887828801611286565b91505092959194509250565b7f6f757420666f722064656c697661727920627574206e6f74207265636965766560008201527f642070726f637563740000000000000000000000000000000000000000000000602082015250565b6000611490602983610be2565b915061149b82611434565b604082019050919050565b600060208201905081810360008301526114bf81611483565b9050919050565b600080600080600060a086880312156114e2576114e1610aff565b5b60006114f088828901611205565b955050602086015167ffffffffffffffff81111561151157611510610b04565b5b61151d88828901611286565b945050604061152e8882890161121a565b935050606086015167ffffffffffffffff81111561154f5761154e610b04565b5b61155b88828901611286565b925050608061156c8882890161122f565b9150509295509295909350565b60006020828403121561158f5761158e610aff565b5b600061159d8482850161121a565b91505092915050565b7f696e76616c6964206672696768745f666f727761726465720000000000000000600082015250565b60006115dc601883610be2565b91506115e7826115a6565b602082019050919050565b6000602082019050818103600083015261160b816115cf565b9050919050565b7f417070726f707261697465206574686572206e6f742073656e7420746f20736560008201527f6c6c657200000000000000000000000000000000000000000000000000000000602082015250565b600061166e602483610be2565b915061167982611612565b604082019050919050565b6000602082019050818103600083015261169d81611661565b9050919050565b6116ad81610f48565b82525050565b600060e0820190506116c8600083018a610b87565b6116d56020830189610bc8565b81810360408301526116e78188610c2e565b90506116f660608301876116a4565b81810360808301526117088186610c2e565b905081810360a083015261171c8185610c2e565b905061172b60c0830184610bc8565b9897505050505050505056fea2646970667358221220993c5615b79b911f31ec9c6817985703830e5f49937175828963071ab1befe3b64736f6c63430008100033",
  "immutableReferences": {},
  "source": "        // SPDX-License-Identifier: MIT\r\n        import \"./seller.sol\";\r\n        import \"./logistic.sol\";\r\n        pragma solidity ^0.8.7;\r\n\r\n\r\n\r\n        contract buyer {\r\n            seller s;\r\n            logistic l;\r\n            \r\n            struct rec{\r\n                bool recv;\r\n            }\r\n             \r\n             string d=\"order recived\";\r\n            mapping (uint=>rec) rc;\r\n        //to set seller address\r\n            function setSeller(address _seller) public{\r\n                s=seller(payable(_seller));\r\n            }\r\n\r\n            function setlogistic(address _logistic) public{\r\n                l=logistic(payable(_logistic));\r\n            }\r\n\r\n\r\n        //to check available product with seller\r\n            function avalable_product(uint256 id) public  view  returns (bool,string memory,\r\n            uint,string memory,address)\r\n            {\r\n                return s.viewProduct(id);\r\n            } \r\n\r\n        //to purchase product from seller by sending ether\r\n            function purchase(uint pid,\r\n            string memory name,uint40 ph,string memory _mail,string memory _location,address f_f) \r\n            public payable  {\r\n                address buy=msg.sender;\r\n                uint price = s.getp(pid);\r\n                //uint price1 = l.d_fees();\r\n                rc[pid]=rec(false);\r\n                require(f_f!=address(0x00),\"invalid fright_forwarder\");\r\n                require(msg.value == price,\"Appropraite ether not sent to seller\");\r\n               // require(msg.value == price1,\"Appropraite ether not sent to fright\");\r\n                (bool success, ) = payable(s).call{value: msg.value}(\"\");\r\n                //(bool success1, ) = payable(l).call{value: msg.value}(\"\");\r\n                require(success, \"Failed to send Ether\");\r\n               // require(success1, \"Failed to send Ether\");\r\n                return s.purchase(pid,buy,name,ph,_mail,_location,f_f);\r\n            } \r\n\r\n            function send_d_fees(uint oid) public payable {\r\n                 address buy=msg.sender;\r\n                require(msg.value == 100 wei,\"Appropraite ether not sent to fright\");\r\n                (bool success, ) = payable(l).call{value: msg.value}(\"\");\r\n                 require(success, \"Failed to send Ether\");\r\n                return l.Freightforward(oid,buy);\r\n            }\r\n            //to view order detials\r\n            function orderdetails(uint pid) public  returns(bool,\r\n        uint,address,string memory, address,bool){\r\n                           \r\n                        return s.orderdetails(pid);\r\n                }\r\n\r\n        function tracking(uint pid) public view returns(string memory,string memory,string memory,string memory,bool){\r\n            (string memory a,string memory b,string memory c,string memory dd)=l.tracking(pid);\r\n            require(rc[pid].recv==true,\"out for delivary but not recieved procuct\");\r\n            return (a,b,c,dd,rc[pid].recv);\r\n            \r\n        }\r\n\r\n          function order_recived(uint pid) public returns(bool){\r\n              //require(rc[pid].recv==true,\"out for delivary but not recieved procuct\");\r\n              rc[pid].recv=true;\r\n              return rc[pid].recv;\r\n          }\r\n\r\n           function order_recived1(uint pid) public view returns(bool){\r\n              //require(rc[pid].recv==true,\"out for delivary but not recieved procuct\");\r\n              return rc[pid].recv;\r\n          }        \r\n\r\n        } \r\n",
  "sourcePath": "C:\\Users\\sakha\\Projects\\logistic\\contracts\\buyer.sol",
  "compiler": {
    "name": "solc",
    "version": "0.8.16+commit.07a7930e.Emscripten.clang"
  },
  "schemaVersion": "3.4.9",
  "updatedAt": "2022-10-21T07:36:47.203Z",
  "networkType": "ethereum",
  "devdoc": {
    "kind": "dev",
    "methods": {},
    "version": 1
  },
  "userdoc": {
    "kind": "user",
    "methods": {},
    "version": 1
  }
}