{
  "contractName": "logistic",
  "abi": [
    {
      "inputs": [
        {
          "internalType": "address",
          "name": "ad",
          "type": "address"
        }
      ],
      "stateMutability": "nonpayable",
      "type": "constructor"
    },
    {
      "stateMutability": "payable",
      "type": "fallback",
      "payable": true
    },
    {
      "inputs": [],
      "name": "d_fees",
      "outputs": [
        {
          "internalType": "uint256",
          "name": "",
          "type": "uint256"
        }
      ],
      "stateMutability": "view",
      "type": "function",
      "constant": true
    },
    {
      "stateMutability": "payable",
      "type": "receive",
      "payable": true
    },
    {
      "inputs": [
        {
          "internalType": "address",
          "name": "ad",
          "type": "address"
        }
      ],
      "name": "set_seller",
      "outputs": [],
      "stateMutability": "nonpayable",
      "type": "function"
    },
    {
      "inputs": [
        {
          "internalType": "address",
          "name": "ad",
          "type": "address"
        }
      ],
      "name": "set_clearence",
      "outputs": [],
      "stateMutability": "nonpayable",
      "type": "function"
    },
    {
      "inputs": [
        {
          "internalType": "address",
          "name": "ad",
          "type": "address"
        }
      ],
      "name": "set_buyer",
      "outputs": [],
      "stateMutability": "nonpayable",
      "type": "function"
    },
    {
      "inputs": [
        {
          "internalType": "uint256",
          "name": "oid",
          "type": "uint256"
        },
        {
          "internalType": "address",
          "name": "buy",
          "type": "address"
        }
      ],
      "name": "Freightforward",
      "outputs": [],
      "stateMutability": "payable",
      "type": "function",
      "payable": true
    },
    {
      "inputs": [
        {
          "internalType": "uint256",
          "name": "oid",
          "type": "uint256"
        }
      ],
      "name": "ff_booked",
      "outputs": [
        {
          "internalType": "bool",
          "name": "",
          "type": "bool"
        }
      ],
      "stateMutability": "view",
      "type": "function",
      "constant": true
    },
    {
      "inputs": [
        {
          "internalType": "uint256",
          "name": "oid",
          "type": "uint256"
        }
      ],
      "name": "order_rec",
      "outputs": [
        {
          "internalType": "bool",
          "name": "",
          "type": "bool"
        }
      ],
      "stateMutability": "nonpayable",
      "type": "function"
    },
    {
      "inputs": [
        {
          "internalType": "uint256",
          "name": "oid",
          "type": "uint256"
        }
      ],
      "name": "o_c",
      "outputs": [
        {
          "internalType": "bool",
          "name": "",
          "type": "bool"
        }
      ],
      "stateMutability": "view",
      "type": "function",
      "constant": true
    },
    {
      "inputs": [
        {
          "internalType": "uint256",
          "name": "oid",
          "type": "uint256"
        }
      ],
      "name": "buyer_details",
      "outputs": [
        {
          "internalType": "uint256",
          "name": "",
          "type": "uint256"
        },
        {
          "internalType": "string",
          "name": "",
          "type": "string"
        },
        {
          "internalType": "uint40",
          "name": "",
          "type": "uint40"
        },
        {
          "internalType": "string",
          "name": "",
          "type": "string"
        },
        {
          "internalType": "string",
          "name": "",
          "type": "string"
        }
      ],
      "stateMutability": "view",
      "type": "function",
      "constant": true
    },
    {
      "inputs": [
        {
          "internalType": "uint256",
          "name": "oid",
          "type": "uint256"
        }
      ],
      "name": "send_to_port",
      "outputs": [
        {
          "internalType": "bool",
          "name": "",
          "type": "bool"
        }
      ],
      "stateMutability": "nonpayable",
      "type": "function"
    },
    {
      "inputs": [
        {
          "internalType": "uint256",
          "name": "oid",
          "type": "uint256"
        }
      ],
      "name": "s_t_p",
      "outputs": [
        {
          "internalType": "bool",
          "name": "",
          "type": "bool"
        }
      ],
      "stateMutability": "view",
      "type": "function",
      "constant": true
    },
    {
      "inputs": [
        {
          "internalType": "uint256",
          "name": "oid",
          "type": "uint256"
        }
      ],
      "name": "tracking",
      "outputs": [
        {
          "internalType": "string",
          "name": "",
          "type": "string"
        },
        {
          "internalType": "string",
          "name": "",
          "type": "string"
        },
        {
          "internalType": "string",
          "name": "",
          "type": "string"
        },
        {
          "internalType": "string",
          "name": "",
          "type": "string"
        }
      ],
      "stateMutability": "view",
      "type": "function",
      "constant": true
    },
    {
      "inputs": [
        {
          "internalType": "uint256",
          "name": "oid",
          "type": "uint256"
        }
      ],
      "name": "order_recv_buyer",
      "outputs": [
        {
          "internalType": "bool",
          "name": "",
          "type": "bool"
        }
      ],
      "stateMutability": "view",
      "type": "function",
      "constant": true
    }
  ],
  "bytecode": "0x60806040526040518060400160405280601081526020017f6f757420666f722064656c697661727900000000000000000000000000000000815250600390816200004a91906200038c565b506040518060400160405280601d81526020017f70726f647563742064656c69766572656420746f20637573746f6d6572000000815250600490816200009191906200038c565b506064600855348015620000a457600080fd5b5060405162001f3538038062001f358339818101604052810190620000ca9190620004dd565b80600560006101000a81548173ffffffffffffffffffffffffffffffffffffffff021916908373ffffffffffffffffffffffffffffffffffffffff160217905550506200050f565b600081519050919050565b7f4e487b7100000000000000000000000000000000000000000000000000000000600052604160045260246000fd5b7f4e487b7100000000000000000000000000000000000000000000000000000000600052602260045260246000fd5b600060028204905060018216806200019457607f821691505b602082108103620001aa57620001a96200014c565b5b50919050565b60008190508160005260206000209050919050565b60006020601f8301049050919050565b600082821b905092915050565b600060088302620002147fffffffffffffffffffffffffffffffffffffffffffffffffffffffffffffffff82620001d5565b620002208683620001d5565b95508019841693508086168417925050509392505050565b6000819050919050565b6000819050919050565b60006200026d62000267620002618462000238565b62000242565b62000238565b9050919050565b6000819050919050565b62000289836200024c565b620002a1620002988262000274565b848454620001e2565b825550505050565b600090565b620002b8620002a9565b620002c58184846200027e565b505050565b5b81811015620002ed57620002e1600082620002ae565b600181019050620002cb565b5050565b601f8211156200033c576200030681620001b0565b6200031184620001c5565b8101602085101562000321578190505b620003396200033085620001c5565b830182620002ca565b50505b505050565b600082821c905092915050565b6000620003616000198460080262000341565b1980831691505092915050565b60006200037c83836200034e565b9150826002028217905092915050565b620003978262000112565b67ffffffffffffffff811115620003b357620003b26200011d565b5b620003bf82546200017b565b620003cc828285620002f1565b600060209050601f831160018114620004045760008415620003ef578287015190505b620003fb85826200036e565b8655506200046b565b601f1984166200041486620001b0565b60005b828110156200043e5784890151825560018201915060208501945060208101905062000417565b868310156200045e57848901516200045a601f8916826200034e565b8355505b6001600288020188555050505b505050505050565b600080fd5b600073ffffffffffffffffffffffffffffffffffffffff82169050919050565b6000620004a58262000478565b9050919050565b620004b78162000498565b8114620004c357600080fd5b50565b600081519050620004d781620004ac565b92915050565b600060208284031215620004f657620004f562000473565b5b60006200050684828501620004c6565b91505092915050565b611a16806200051f6000396000f3fe6080604052600436106100c65760003560e01c80639208e6541161007f5780639fd8827e116100595780639fd8827e1461029c578063ae7230e0146102d9578063b4b3be9114610302578063f597fb7e1461033f576100cd565b80639208e654146101f457806399c4acef1461021f5780639e5bca0c1461025f576100cd565b8063337fccda146100cf5780633b96acb9146100f85780633f48e90f14610135578063411d08be14610172578063470eb6121461018e57806391977558146101b7576100cd565b366100cd57005b005b3480156100db57600080fd5b506100f660048036038101906100f19190610fc9565b610380565b005b34801561010457600080fd5b5061011f600480360381019061011a919061102c565b6103c4565b60405161012c9190611074565b60405180910390f35b34801561014157600080fd5b5061015c6004803603810190610157919061102c565b610590565b6040516101699190611074565b60405180910390f35b61018c6004803603810190610187919061108f565b6105bd565b005b34801561019a57600080fd5b506101b560048036038101906101b09190610fc9565b610742565b005b3480156101c357600080fd5b506101de60048036038101906101d9919061102c565b610785565b6040516101eb9190611074565b60405180910390f35b34801561020057600080fd5b506102096107b2565b60405161021691906110de565b60405180910390f35b34801561022b57600080fd5b506102466004803603810190610241919061102c565b6107b8565b6040516102569493929190611189565b60405180910390f35b34801561026b57600080fd5b506102866004803603810190610281919061102c565b610c4b565b6040516102939190611074565b60405180910390f35b3480156102a857600080fd5b506102c360048036038101906102be919061102c565b610c78565b6040516102d09190611074565b60405180910390f35b3480156102e557600080fd5b5061030060048036038101906102fb9190610fc9565b610d1d565b005b34801561030e57600080fd5b506103296004803603810190610324919061102c565b610d61565b6040516103369190611074565b60405180910390f35b34801561034b57600080fd5b506103666004803603810190610361919061102c565b610e9c565b60405161037795949392919061120a565b60405180910390f35b80600260006101000a81548173ffffffffffffffffffffffffffffffffffffffff021916908373ffffffffffffffffffffffffffffffffffffffff16021790555050565b6000600560009054906101000a900473ffffffffffffffffffffffffffffffffffffffff1673ffffffffffffffffffffffffffffffffffffffff163373ffffffffffffffffffffffffffffffffffffffff1614610456576040517f08c379a000000000000000000000000000000000000000000000000000000000815260040161044d906112be565b60405180910390fd5b6001151560008054906101000a900473ffffffffffffffffffffffffffffffffffffffff1673ffffffffffffffffffffffffffffffffffffffff16637fedd783846040518263ffffffff1660e01b81526004016104b391906110de565b602060405180830381865afa1580156104d0573d6000803e3d6000fd5b505050506040513d601f19601f820116820180604052508101906104f4919061130a565b151514610536576040517f08c379a000000000000000000000000000000000000000000000000000000000815260040161052d90611383565b60405180910390fd5b60016007600084815260200190815260200160002060020160146101000a81548160ff0219169083151502179055506007600083815260200190815260200160002060020160149054906101000a900460ff169050919050565b60006007600083815260200190815260200160002060020160149054906101000a900460ff169050919050565b600660008154809291906105d0906113d2565b91905055506040518060c001604052806000151581526020018381526020018273ffffffffffffffffffffffffffffffffffffffff1681526020016000151581526020016000151581526020016000151581525060076000600654815260200190815260200160002060008201518160000160006101000a81548160ff0219169083151502179055506020820151816001015560408201518160020160006101000a81548173ffffffffffffffffffffffffffffffffffffffff021916908373ffffffffffffffffffffffffffffffffffffffff16021790555060608201518160020160146101000a81548160ff02191690831515021790555060808201518160020160156101000a81548160ff02191690831515021790555060a08201518160020160166101000a81548160ff021916908315150217905550905050600160076000600654815260200190815260200160002060000160006101000a81548160ff0219169083151502179055505050565b806000806101000a81548173ffffffffffffffffffffffffffffffffffffffff021916908373ffffffffffffffffffffffffffffffffffffffff16021790555050565b60006007600083815260200190815260200160002060020160159054906101000a900460ff169050919050565b60085481565b6060806060806001151560008054906101000a900473ffffffffffffffffffffffffffffffffffffffff1673ffffffffffffffffffffffffffffffffffffffff16637fedd783876040518263ffffffff1660e01b815260040161081b91906110de565b602060405180830381865afa158015610838573d6000803e3d6000fd5b505050506040513d601f19601f8201168201806040525081019061085c919061130a565b15151461089e576040517f08c379a000000000000000000000000000000000000000000000000000000000815260040161089590611466565b60405180910390fd5b600115156108ab86610785565b1515146108ed576040517f08c379a00000000000000000000000000000000000000000000000000000000081526004016108e4906114f8565b60405180910390fd5b600080600160009054906101000a900473ffffffffffffffffffffffffffffffffffffffff1673ffffffffffffffffffffffffffffffffffffffff16638ef6d9de886040518263ffffffff1660e01b815260040161094b91906110de565b600060405180830381865afa158015610968573d6000803e3d6000fd5b505050506040513d6000823e3d601f19601f82011682018060405250810190610991919061163e565b9150915060011515811515146109dc576040517f08c379a00000000000000000000000000000000000000000000000000000000081526004016109d3906116e6565b60405180910390fd5b600080600160009054906101000a900473ffffffffffffffffffffffffffffffffffffffff1673ffffffffffffffffffffffffffffffffffffffff1663bf08bb458a6040518263ffffffff1660e01b8152600401610a3a91906110de565b600060405180830381865afa158015610a57573d6000803e3d6000fd5b505050506040513d6000823e3d601f19601f82011682018060405250810190610a80919061163e565b915091506001151581151514610acb576040517f08c379a0000000000000000000000000000000000000000000000000000000008152600401610ac290611752565b60405180910390fd5b60011515610ad88a610c78565b151514610b1a576040517f08c379a0000000000000000000000000000000000000000000000000000000008152600401610b11906117e4565b60405180910390fd5b838260036004818054610b2c90611833565b80601f0160208091040260200160405190810160405280929190818152602001828054610b5890611833565b8015610ba55780601f10610b7a57610100808354040283529160200191610ba5565b820191906000526020600020905b815481529060010190602001808311610b8857829003601f168201915b50505050509150808054610bb890611833565b80601f0160208091040260200160405190810160405280929190818152602001828054610be490611833565b8015610c315780601f10610c0657610100808354040283529160200191610c31565b820191906000526020600020905b815481529060010190602001808311610c1457829003601f168201915b505050505090509750975097509750505050509193509193565b60006007600083815260200190815260200160002060000160009054906101000a900460ff169050919050565b6000600260009054906101000a900473ffffffffffffffffffffffffffffffffffffffff1673ffffffffffffffffffffffffffffffffffffffff1663a218d9fe836040518263ffffffff1660e01b8152600401610cd591906110de565b602060405180830381865afa158015610cf2573d6000803e3d6000fd5b505050506040513d601f19601f82011682018060405250810190610d16919061130a565b9050919050565b80600160006101000a81548173ffffffffffffffffffffffffffffffffffffffff021916908373ffffffffffffffffffffffffffffffffffffffff16021790555050565b6000600560009054906101000a900473ffffffffffffffffffffffffffffffffffffffff1673ffffffffffffffffffffffffffffffffffffffff163373ffffffffffffffffffffffffffffffffffffffff1614610df3576040517f08c379a0000000000000000000000000000000000000000000000000000000008152600401610dea906112be565b60405180910390fd5b60011515610e0083610590565b151514610e42576040517f08c379a0000000000000000000000000000000000000000000000000000000008152600401610e39906118b0565b60405180910390fd5b60016007600084815260200190815260200160002060020160156101000a81548160ff0219169083151502179055506007600083815260200190815260200160002060020160159054906101000a900460ff169050919050565b60006060600060608060008054906101000a900473ffffffffffffffffffffffffffffffffffffffff1673ffffffffffffffffffffffffffffffffffffffff1663ff4c42fc876040518263ffffffff1660e01b8152600401610efe91906110de565b600060405180830381865afa158015610f1b573d6000803e3d6000fd5b505050506040513d6000823e3d601f19601f82011682018060405250810190610f449190611911565b9450945094509450945091939590929450565b6000604051905090565b600080fd5b600080fd5b600073ffffffffffffffffffffffffffffffffffffffff82169050919050565b6000610f9682610f6b565b9050919050565b610fa681610f8b565b8114610fb157600080fd5b50565b600081359050610fc381610f9d565b92915050565b600060208284031215610fdf57610fde610f61565b5b6000610fed84828501610fb4565b91505092915050565b6000819050919050565b61100981610ff6565b811461101457600080fd5b50565b60008135905061102681611000565b92915050565b60006020828403121561104257611041610f61565b5b600061105084828501611017565b91505092915050565b60008115159050919050565b61106e81611059565b82525050565b60006020820190506110896000830184611065565b92915050565b600080604083850312156110a6576110a5610f61565b5b60006110b485828601611017565b92505060206110c585828601610fb4565b9150509250929050565b6110d881610ff6565b82525050565b60006020820190506110f360008301846110cf565b92915050565b600081519050919050565b600082825260208201905092915050565b60005b83811015611133578082015181840152602081019050611118565b60008484015250505050565b6000601f19601f8301169050919050565b600061115b826110f9565b6111658185611104565b9350611175818560208601611115565b61117e8161113f565b840191505092915050565b600060808201905081810360008301526111a38187611150565b905081810360208301526111b78186611150565b905081810360408301526111cb8185611150565b905081810360608301526111df8184611150565b905095945050505050565b600064ffffffffff82169050919050565b611204816111ea565b82525050565b600060a08201905061121f60008301886110cf565b81810360208301526112318187611150565b905061124060408301866111fb565b81810360608301526112528185611150565b905081810360808301526112668184611150565b90509695505050505050565b7f756e617574686f72697a65642072657175657374000000000000000000000000600082015250565b60006112a8601483611104565b91506112b382611272565b602082019050919050565b600060208201905081810360008301526112d78161129b565b9050919050565b6112e781611059565b81146112f257600080fd5b50565b600081519050611304816112de565b92915050565b6000602082840312156113205761131f610f61565b5b600061132e848285016112f5565b91505092915050565b7f6e6f74207061636b65642066726f6d2073656c6c657200000000000000000000600082015250565b600061136d601683611104565b915061137882611337565b602082019050919050565b6000602082019050818103600083015261139c81611360565b9050919050565b7f4e487b7100000000000000000000000000000000000000000000000000000000600052601160045260246000fd5b60006113dd82610ff6565b91507fffffffffffffffffffffffffffffffffffffffffffffffffffffffffffffffff820361140f5761140e6113a3565b5b600182019050919050565b7f6f72646572206973206e6f74207061636b65642066726f6d2073656c6c657200600082015250565b6000611450601f83611104565b915061145b8261141a565b602082019050919050565b6000602082019050818103600083015261147f81611443565b9050919050565b7f6666206e6f7420696e6974696174656420706f727420636c656172656e63652060008201527f7265717565737400000000000000000000000000000000000000000000000000602082015250565b60006114e2602783611104565b91506114ed82611486565b604082019050919050565b60006020820190508181036000830152611511816114d5565b9050919050565b600080fd5b600080fd5b7f4e487b7100000000000000000000000000000000000000000000000000000000600052604160045260246000fd5b61155a8261113f565b810181811067ffffffffffffffff8211171561157957611578611522565b5b80604052505050565b600061158c610f57565b90506115988282611551565b919050565b600067ffffffffffffffff8211156115b8576115b7611522565b5b6115c18261113f565b9050602081019050919050565b60006115e16115dc8461159d565b611582565b9050828152602081018484840111156115fd576115fc61151d565b5b611608848285611115565b509392505050565b600082601f83011261162557611624611518565b5b81516116358482602086016115ce565b91505092915050565b6000806040838503121561165557611654610f61565b5b600083015167ffffffffffffffff81111561167357611672610f66565b5b61167f85828601611610565b9250506020611690858286016112f5565b9150509250929050565b7f6578706f727420636c656172656e636520726571756972656400000000000000600082015250565b60006116d0601983611104565b91506116db8261169a565b602082019050919050565b600060208201905081810360008301526116ff816116c3565b9050919050565b7f696d706f727420636c656172656e636520726571756972656400000000000000600082015250565b600061173c601983611104565b915061174782611706565b602082019050919050565b6000602082019050818103600083015261176b8161172f565b9050919050565b7f6f757420666f722064656c697661727920627574206e6f74207265636976656460008201527f2079657400000000000000000000000000000000000000000000000000000000602082015250565b60006117ce602483611104565b91506117d982611772565b604082019050919050565b600060208201905081810360008301526117fd816117c1565b9050919050565b7f4e487b7100000000000000000000000000000000000000000000000000000000600052602260045260246000fd5b6000600282049050600182168061184b57607f821691505b60208210810361185e5761185d611804565b5b50919050565b7f6666206e6f74207265636965766564206f726465720000000000000000000000600082015250565b600061189a601583611104565b91506118a582611864565b602082019050919050565b600060208201905081810360008301526118c98161188d565b9050919050565b6000815190506118df81611000565b92915050565b6118ee816111ea565b81146118f957600080fd5b50565b60008151905061190b816118e5565b92915050565b600080600080600060a0868803121561192d5761192c610f61565b5b600061193b888289016118d0565b955050602086015167ffffffffffffffff81111561195c5761195b610f66565b5b61196888828901611610565b9450506040611979888289016118fc565b935050606086015167ffffffffffffffff81111561199a57611999610f66565b5b6119a688828901611610565b925050608086015167ffffffffffffffff8111156119c7576119c6610f66565b5b6119d388828901611610565b915050929550929590935056fea26469706673582212201b252f5208599683f22e66f6863205ffc0ff454122dfd8ee64c7c0552f242e8864736f6c63430008100033",
  "immutableReferences": {},
  "source": "    // SPDX-License-Identifier: MIT\r\n        import \"./seller.sol\";\r\n        import \"./clearence.sol\";\r\n        import \"./buyer.sol\";\r\n        pragma solidity ^0.8.7;\r\n\r\n\r\n        contract logistic {\r\n            seller s;\r\n            portclearence p;\r\n            buyer bu;\r\n            string st =\"out for delivary\";\r\n            struct Freightforwarder {\r\n                bool ff_booked;\r\n                uint oid;\r\n                address buy;\r\n                bool recieved_ff;\r\n                bool ff_initiates;\r\n                bool recieved_buyer;\r\n            }\r\n\r\n            string su =\"product delivered to customer\";\r\n            address owner;\r\n             constructor(address ad){\r\n                     owner=ad;\r\n                    }\r\n            modifier onlyOwner(){\r\n\r\n        require(msg.sender==owner, \"unauthorized request\");\r\n        _;\r\n            }\r\n\r\n            \r\n\r\n             function set_seller(address ad) public {\r\n               s=seller(payable(ad));\r\n         }\r\n           function set_clearence(address ad) public {\r\n               p=portclearence(payable(ad));\r\n         }\r\n         function set_buyer(address ad) public {\r\n               bu=buyer(payable(ad));\r\n         }\r\n            uint ffcount;\r\n            // mapping (uint =>Ex_Clear) ex;\r\n            // mapping (uint =>Im_Clear) im;\r\n            mapping (uint => Freightforwarder) ff;\r\n            uint public d_fees=100 wei;\r\n\r\n            function Freightforward(uint oid,address buy) public payable  {\r\n                                  \r\n                 ffcount++;\r\n                 ff[ffcount] = Freightforwarder(false,oid,buy,false,false,false); \r\n                 ff[ffcount].ff_booked=true;  \r\n                     \r\n            }\r\n\r\n            function ff_booked(uint oid) public view  returns (bool){\r\n                return ff[oid].ff_booked;\r\n            }\r\n\r\n            function order_rec(uint oid) public onlyOwner returns  (bool){\r\n                require(s.a_d(oid)==true,\"not packed from seller\");\r\n                ff[oid].recieved_ff=true;\r\n                return ff[oid].recieved_ff;\r\n            }\r\n            function o_c(uint oid) public view returns(bool){\r\n                return ff[oid].recieved_ff;\r\n            }\r\n\r\n            // write ff send code here and modify ff_send functon\r\n\r\n            function buyer_details(uint oid) public view  returns(uint,string memory,uint40,string memory,string memory) {\r\n                return s.buyerdetails(oid);\r\n            }\r\n\r\n            function send_to_port(uint oid) public onlyOwner returns (bool){\r\n                    require(o_c(oid)==true,\"ff not recieved order\");\r\n                    ff[oid].ff_initiates=true;\r\n                    return ff[oid].ff_initiates;\r\n            }\r\n            function s_t_p(uint oid) public view returns(bool){\r\n                   return ff[oid].ff_initiates;\r\n            }\r\n\r\n            function tracking(uint oid) public  view returns (string memory,string memory,string memory,string memory){\r\n                require(s.a_d(oid)==true,\"order is not packed from seller\");\r\n                require(s_t_p(oid)==true,\"ff not initiated port clearence request\");\r\n                (string memory a ,bool b)=p.e_c(oid);\r\n                require(b==true,\"export clearence required\");\r\n                (string memory c , bool d) = p.i_c(oid);\r\n                require(d==true,\"import clearence required\");\r\n                \r\n                require(order_recv_buyer(oid)==true,\"out for delivary but not recived yet\");\r\n                return (a,c,st,su);\r\n\r\n            }\r\n\r\n            function order_recv_buyer(uint oid) public view returns(bool){\r\n               return  bu.order_recived1(oid);\r\n            }\r\n          \r\n\r\n\r\n    receive() external payable {}\r\n\r\n    fallback() external payable {}\r\n        }",
  "sourcePath": "C:\\Users\\sakha\\Projects\\logistic\\contracts\\logistic.sol",
  "compiler": {
    "name": "solc",
    "version": "0.8.16+commit.07a7930e.Emscripten.clang"
  },
  "schemaVersion": "3.4.9",
  "updatedAt": "2022-10-21T07:36:48.984Z",
  "networkType": "ethereum",
  "devdoc": {
    "kind": "dev",
    "methods": {},
    "version": 1
  },
  "userdoc": {
    "kind": "user",
    "methods": {},
    "version": 1
  }
}