{
  "contractName": "portclearence",
  "abi": [
    {
      "inputs": [
        {
          "internalType": "address",
          "name": "_ExportClearanceAuthority",
          "type": "address"
        },
        {
          "internalType": "address",
          "name": "_importClearanceAuthority",
          "type": "address"
        }
      ],
      "stateMutability": "nonpayable",
      "type": "constructor"
    },
    {
      "inputs": [
        {
          "internalType": "uint256",
          "name": "",
          "type": "uint256"
        }
      ],
      "name": "ex",
      "outputs": [
        {
          "internalType": "bool",
          "name": "e_c",
          "type": "bool"
        },
        {
          "internalType": "uint256",
          "name": "oid",
          "type": "uint256"
        }
      ],
      "stateMutability": "view",
      "type": "function",
      "constant": true
    },
    {
      "inputs": [
        {
          "internalType": "uint256",
          "name": "",
          "type": "uint256"
        }
      ],
      "name": "im",
      "outputs": [
        {
          "internalType": "bool",
          "name": "i_c",
          "type": "bool"
        },
        {
          "internalType": "uint256",
          "name": "oid",
          "type": "uint256"
        }
      ],
      "stateMutability": "view",
      "type": "function",
      "constant": true
    },
    {
      "inputs": [
        {
          "internalType": "address",
          "name": "ad",
          "type": "address"
        }
      ],
      "name": "set_logistic",
      "outputs": [],
      "stateMutability": "nonpayable",
      "type": "function"
    },
    {
      "inputs": [
        {
          "internalType": "uint256",
          "name": "oid",
          "type": "uint256"
        }
      ],
      "name": "e_clearence",
      "outputs": [
        {
          "internalType": "string",
          "name": "",
          "type": "string"
        },
        {
          "internalType": "bool",
          "name": "",
          "type": "bool"
        }
      ],
      "stateMutability": "nonpayable",
      "type": "function"
    },
    {
      "inputs": [
        {
          "internalType": "uint256",
          "name": "oid",
          "type": "uint256"
        }
      ],
      "name": "e_c",
      "outputs": [
        {
          "internalType": "string",
          "name": "",
          "type": "string"
        },
        {
          "internalType": "bool",
          "name": "",
          "type": "bool"
        }
      ],
      "stateMutability": "view",
      "type": "function",
      "constant": true
    },
    {
      "inputs": [
        {
          "internalType": "uint256",
          "name": "oid",
          "type": "uint256"
        }
      ],
      "name": "i_clearence",
      "outputs": [
        {
          "internalType": "string",
          "name": "",
          "type": "string"
        },
        {
          "internalType": "bool",
          "name": "",
          "type": "bool"
        }
      ],
      "stateMutability": "nonpayable",
      "type": "function"
    },
    {
      "inputs": [
        {
          "internalType": "uint256",
          "name": "oid",
          "type": "uint256"
        }
      ],
      "name": "i_c",
      "outputs": [
        {
          "internalType": "string",
          "name": "",
          "type": "string"
        },
        {
          "internalType": "bool",
          "name": "",
          "type": "bool"
        }
      ],
      "stateMutability": "view",
      "type": "function",
      "constant": true
    }
  ],
  "bytecode": "0x60806040526040518060400160405280601a81526020017f646f6e652077697468206578706f727420636c656172656e6365000000000000815250600390816200004a9190620003c9565b506040518060400160405280601a81526020017f646f6e65207769746820696d706f727420636c656172656e636500000000000081525060049081620000919190620003c9565b503480156200009f57600080fd5b5060405162001284380380620012848339818101604052810190620000c591906200051a565b81600760006101000a81548173ffffffffffffffffffffffffffffffffffffffff021916908373ffffffffffffffffffffffffffffffffffffffff16021790555080600860006101000a81548173ffffffffffffffffffffffffffffffffffffffff021916908373ffffffffffffffffffffffffffffffffffffffff160217905550505062000561565b600081519050919050565b7f4e487b7100000000000000000000000000000000000000000000000000000000600052604160045260246000fd5b7f4e487b7100000000000000000000000000000000000000000000000000000000600052602260045260246000fd5b60006002820490506001821680620001d157607f821691505b602082108103620001e757620001e662000189565b5b50919050565b60008190508160005260206000209050919050565b60006020601f8301049050919050565b600082821b905092915050565b600060088302620002517fffffffffffffffffffffffffffffffffffffffffffffffffffffffffffffffff8262000212565b6200025d868362000212565b95508019841693508086168417925050509392505050565b6000819050919050565b6000819050919050565b6000620002aa620002a46200029e8462000275565b6200027f565b62000275565b9050919050565b6000819050919050565b620002c68362000289565b620002de620002d582620002b1565b8484546200021f565b825550505050565b600090565b620002f5620002e6565b62000302818484620002bb565b505050565b5b818110156200032a576200031e600082620002eb565b60018101905062000308565b5050565b601f82111562000379576200034381620001ed565b6200034e8462000202565b810160208510156200035e578190505b620003766200036d8562000202565b83018262000307565b50505b505050565b600082821c905092915050565b60006200039e600019846008026200037e565b1980831691505092915050565b6000620003b983836200038b565b9150826002028217905092915050565b620003d4826200014f565b67ffffffffffffffff811115620003f057620003ef6200015a565b5b620003fc8254620001b8565b620004098282856200032e565b600060209050601f8311600181146200044157600084156200042c578287015190505b620004388582620003ab565b865550620004a8565b601f1984166200045186620001ed565b60005b828110156200047b5784890151825560018201915060208501945060208101905062000454565b868310156200049b578489015162000497601f8916826200038b565b8355505b6001600288020188555050505b505050505050565b600080fd5b600073ffffffffffffffffffffffffffffffffffffffff82169050919050565b6000620004e282620004b5565b9050919050565b620004f481620004d5565b81146200050057600080fd5b50565b6000815190506200051481620004e9565b92915050565b60008060408385031215620005345762000533620004b0565b5b6000620005448582860162000503565b9250506020620005578582860162000503565b9150509250929050565b610d1380620005716000396000f3fe608060405234801561001057600080fd5b506004361061007d5760003560e01c80638ef6d9de1161005b5780638ef6d9de14610115578063b736255a14610146578063bf08bb4514610177578063dc92000f146101a85761007d565b80631089f215146100825780631a8d9924146100b357806334ddd6b5146100e4575b600080fd5b61009c60048036038101906100979190610868565b6101c4565b6040516100aa9291906108bf565b60405180910390f35b6100cd60048036038101906100c89190610868565b6101f5565b6040516100db929190610978565b60405180910390f35b6100fe60048036038101906100f99190610868565b610453565b60405161010c9291906108bf565b60405180910390f35b61012f600480360381019061012a9190610868565b610484565b60405161013d929190610978565b60405180910390f35b610160600480360381019061015b9190610868565b610543565b60405161016e929190610978565b60405180910390f35b610191600480360381019061018c9190610868565b61072b565b60405161019f929190610978565b60405180910390f35b6101c260048036038101906101bd9190610a06565b6107ea565b005b60056020528060005260406000206000915090508060000160009054906101000a900460ff16908060010154905082565b60606000600760009054906101000a900473ffffffffffffffffffffffffffffffffffffffff1673ffffffffffffffffffffffffffffffffffffffff163373ffffffffffffffffffffffffffffffffffffffff1614610289576040517f08c379a000000000000000000000000000000000000000000000000000000000815260040161028090610a7f565b60405180910390fd5b6001151560008054906101000a900473ffffffffffffffffffffffffffffffffffffffff1673ffffffffffffffffffffffffffffffffffffffff166391977558856040518263ffffffff1660e01b81526004016102e69190610a9f565b602060405180830381865afa158015610303573d6000803e3d6000fd5b505050506040513d601f19601f820116820180604052508101906103279190610ae6565b151514610369576040517f08c379a000000000000000000000000000000000000000000000000000000000815260040161036090610b85565b60405180910390fd5b60016005600085815260200190815260200160002060000160006101000a81548160ff02191690831515021790555060036005600085815260200190815260200160002060000160009054906101000a900460ff168180546103ca90610bd4565b80601f01602080910402602001604051908101604052809291908181526020018280546103f690610bd4565b80156104435780601f1061041857610100808354040283529160200191610443565b820191906000526020600020905b81548152906001019060200180831161042657829003601f168201915b5050505050915091509150915091565b60066020528060005260406000206000915090508060000160009054906101000a900460ff16908060010154905082565b6060600060036005600085815260200190815260200160002060000160009054906101000a900460ff168180546104ba90610bd4565b80601f01602080910402602001604051908101604052809291908181526020018280546104e690610bd4565b80156105335780601f1061050857610100808354040283529160200191610533565b820191906000526020600020905b81548152906001019060200180831161051657829003601f168201915b5050505050915091509150915091565b60606000600860009054906101000a900473ffffffffffffffffffffffffffffffffffffffff1673ffffffffffffffffffffffffffffffffffffffff163373ffffffffffffffffffffffffffffffffffffffff16146105d7576040517f08c379a00000000000000000000000000000000000000000000000000000000081526004016105ce90610c51565b60405180910390fd5b600115156005600085815260200190815260200160002060000160009054906101000a900460ff16151514610641576040517f08c379a000000000000000000000000000000000000000000000000000000000815260040161063890610cbd565b60405180910390fd5b60016006600085815260200190815260200160002060000160006101000a81548160ff02191690831515021790555060046006600085815260200190815260200160002060000160009054906101000a900460ff168180546106a290610bd4565b80601f01602080910402602001604051908101604052809291908181526020018280546106ce90610bd4565b801561071b5780601f106106f05761010080835404028352916020019161071b565b820191906000526020600020905b8154815290600101906020018083116106fe57829003601f168201915b5050505050915091509150915091565b6060600060046006600085815260200190815260200160002060000160009054906101000a900460ff1681805461076190610bd4565b80601f016020809104026020016040519081016040528092919081815260200182805461078d90610bd4565b80156107da5780601f106107af576101008083540402835291602001916107da565b820191906000526020600020905b8154815290600101906020018083116107bd57829003601f168201915b5050505050915091509150915091565b806000806101000a81548173ffffffffffffffffffffffffffffffffffffffff021916908373ffffffffffffffffffffffffffffffffffffffff16021790555050565b600080fd5b6000819050919050565b61084581610832565b811461085057600080fd5b50565b6000813590506108628161083c565b92915050565b60006020828403121561087e5761087d61082d565b5b600061088c84828501610853565b91505092915050565b60008115159050919050565b6108aa81610895565b82525050565b6108b981610832565b82525050565b60006040820190506108d460008301856108a1565b6108e160208301846108b0565b9392505050565b600081519050919050565b600082825260208201905092915050565b60005b83811015610922578082015181840152602081019050610907565b60008484015250505050565b6000601f19601f8301169050919050565b600061094a826108e8565b61095481856108f3565b9350610964818560208601610904565b61096d8161092e565b840191505092915050565b60006040820190508181036000830152610992818561093f565b90506109a160208301846108a1565b9392505050565b600073ffffffffffffffffffffffffffffffffffffffff82169050919050565b60006109d3826109a8565b9050919050565b6109e3816109c8565b81146109ee57600080fd5b50565b600081359050610a00816109da565b92915050565b600060208284031215610a1c57610a1b61082d565b5b6000610a2a848285016109f1565b91505092915050565b7f756e617574686f72697365642d2d4578706f7274000000000000000000000000600082015250565b6000610a696014836108f3565b9150610a7482610a33565b602082019050919050565b60006020820190508181036000830152610a9881610a5c565b9050919050565b6000602082019050610ab460008301846108b0565b92915050565b610ac381610895565b8114610ace57600080fd5b50565b600081519050610ae081610aba565b92915050565b600060208284031215610afc57610afb61082d565b5b6000610b0a84828501610ad1565b91505092915050565b7f6e6f74207265636965766564206578706f727420706f727420636c656172656e60008201527f636520726571756573742066726f6d2066660000000000000000000000000000602082015250565b6000610b6f6032836108f3565b9150610b7a82610b13565b604082019050919050565b60006020820190508181036000830152610b9e81610b62565b9050919050565b7f4e487b7100000000000000000000000000000000000000000000000000000000600052602260045260246000fd5b60006002820490506001821680610bec57607f821691505b602082108103610bff57610bfe610ba5565b5b50919050565b7f756e617574686f7269736564202d2d20696d706f727400000000000000000000600082015250565b6000610c3b6016836108f3565b9150610c4682610c05565b602082019050919050565b60006020820190508181036000830152610c6a81610c2e565b9050919050565b7f6578706f727420636c656172656e63652069732070656e64696e670000000000600082015250565b6000610ca7601b836108f3565b9150610cb282610c71565b602082019050919050565b60006020820190508181036000830152610cd681610c9a565b905091905056fea2646970667358221220070f8838d952f1b0f64f93f04b1c2dfaa3273b9b529f262122433c600f3021d764736f6c63430008100033",
  "immutableReferences": {},
  "source": "    // SPDX-License-Identifier: MIT\r\n        import \"./logistic.sol\";\r\n        pragma solidity ^0.8.7;\r\n\r\n        contract portclearence {\r\n            logistic l;\r\n            address ec;\r\n            address ic;\r\n            string s =\"done with export clearence\";\r\n            string a =\"done with import clearence\";\r\n\r\n            struct Ex_Clear{\r\n                bool e_c;\r\n                uint oid;\r\n            }\r\n\r\n            struct Im_Clear{\r\n                bool i_c;\r\n                uint oid;\r\n            }\r\n\r\n            mapping (uint =>Ex_Clear) public ex;\r\n            mapping (uint =>Im_Clear) public im;\r\n           address ExportClearanceAuthority;\r\n           address importClearanceAuthority;\r\n           constructor(address _ExportClearanceAuthority,address _importClearanceAuthority){\r\n                 ExportClearanceAuthority = _ExportClearanceAuthority;\r\n                 importClearanceAuthority = _importClearanceAuthority;\r\n    }\r\n           modifier onlyExport(){\r\n\r\n        require(msg.sender==ExportClearanceAuthority, \"unauthorised--Export\");\r\n        _;\r\n            }\r\n            modifier onlyImport(){\r\n\r\n        require(msg.sender==importClearanceAuthority, \"unauthorised -- import\");\r\n        _;\r\n            }\r\n\r\n            function set_logistic(address ad) public {\r\n               l=logistic(payable(ad));\r\n         }\r\n\r\n          function e_clearence(uint oid) public onlyExport returns(string memory,bool) {\r\n                  require(l.s_t_p(oid)==true,\"not recieved export port clearence request from ff\");\r\n                  ex[oid].e_c=true;\r\n                  return (s,ex[oid].e_c);\r\n            }\r\n            function e_c(uint oid) public view returns(string memory,bool){\r\n                return (s,ex[oid].e_c);\r\n            }\r\n            function i_clearence(uint oid) public onlyImport returns(string memory,bool) {\r\n                  require(ex[oid].e_c==true,\"export clearence is pending\");\r\n                  im[oid].i_c=true;\r\n                  return (a,im[oid].i_c);\r\n            }\r\n            function i_c(uint oid) public view returns(string memory,bool){\r\n                   return (a,im[oid].i_c);\r\n            }\r\n            \r\n            \r\n        }",
  "sourcePath": "C:\\Users\\sakha\\Projects\\logistic\\contracts\\clearence.sol",
  "compiler": {
    "name": "solc",
    "version": "0.8.16+commit.07a7930e.Emscripten.clang"
  },
  "schemaVersion": "3.4.9",
  "updatedAt": "2022-10-21T07:36:51.013Z",
  "networkType": "ethereum",
  "devdoc": {
    "kind": "dev",
    "methods": {},
    "version": 1
  },
  "userdoc": {
    "kind": "user",
    "methods": {},
    "version": 1
  }
}