{
  "contractName": "seller",
  "abi": [
    {
      "inputs": [
        {
          "internalType": "address",
          "name": "_ad",
          "type": "address"
        }
      ],
      "stateMutability": "nonpayable",
      "type": "constructor"
    },
    {
      "stateMutability": "payable",
      "type": "fallback",
      "payable": true
    },
    {
      "inputs": [
        {
          "internalType": "uint256",
          "name": "",
          "type": "uint256"
        }
      ],
      "name": "orders",
      "outputs": [
        {
          "internalType": "bool",
          "name": "sold",
          "type": "bool"
        },
        {
          "internalType": "uint256",
          "name": "pid",
          "type": "uint256"
        },
        {
          "internalType": "address",
          "name": "id",
          "type": "address"
        },
        {
          "internalType": "string",
          "name": "name",
          "type": "string"
        },
        {
          "internalType": "uint40",
          "name": "phno",
          "type": "uint40"
        },
        {
          "internalType": "string",
          "name": "email",
          "type": "string"
        },
        {
          "internalType": "string",
          "name": "location",
          "type": "string"
        },
        {
          "internalType": "address",
          "name": "logi",
          "type": "address"
        },
        {
          "internalType": "bool",
          "name": "send_to_ff",
          "type": "bool"
        }
      ],
      "stateMutability": "view",
      "type": "function",
      "constant": true
    },
    {
      "inputs": [],
      "name": "productcount",
      "outputs": [
        {
          "internalType": "uint256",
          "name": "",
          "type": "uint256"
        }
      ],
      "stateMutability": "view",
      "type": "function",
      "constant": true
    },
    {
      "inputs": [
        {
          "internalType": "uint256",
          "name": "",
          "type": "uint256"
        }
      ],
      "name": "products",
      "outputs": [
        {
          "internalType": "bool",
          "name": "available",
          "type": "bool"
        },
        {
          "internalType": "address",
          "name": "pid",
          "type": "address"
        },
        {
          "internalType": "string",
          "name": "name",
          "type": "string"
        },
        {
          "internalType": "uint256",
          "name": "price",
          "type": "uint256"
        },
        {
          "internalType": "string",
          "name": "_desc",
          "type": "string"
        },
        {
          "internalType": "uint256",
          "name": "productcount",
          "type": "uint256"
        }
      ],
      "stateMutability": "view",
      "type": "function",
      "constant": true
    },
    {
      "stateMutability": "payable",
      "type": "receive",
      "payable": true
    },
    {
      "inputs": [
        {
          "internalType": "address",
          "name": "ad",
          "type": "address"
        }
      ],
      "name": "set_logistic",
      "outputs": [],
      "stateMutability": "nonpayable",
      "type": "function"
    },
    {
      "inputs": [
        {
          "internalType": "string",
          "name": "product_name",
          "type": "string"
        },
        {
          "internalType": "uint256",
          "name": "price",
          "type": "uint256"
        },
        {
          "internalType": "string",
          "name": "_desc",
          "type": "string"
        }
      ],
      "name": "addProduct",
      "outputs": [],
      "stateMutability": "nonpayable",
      "type": "function"
    },
    {
      "inputs": [
        {
          "internalType": "uint256",
          "name": "id",
          "type": "uint256"
        }
      ],
      "name": "viewProduct",
      "outputs": [
        {
          "internalType": "bool",
          "name": "",
          "type": "bool"
        },
        {
          "internalType": "string",
          "name": "",
          "type": "string"
        },
        {
          "internalType": "uint256",
          "name": "",
          "type": "uint256"
        },
        {
          "internalType": "string",
          "name": "",
          "type": "string"
        },
        {
          "internalType": "address",
          "name": "",
          "type": "address"
        }
      ],
      "stateMutability": "view",
      "type": "function",
      "constant": true
    },
    {
      "inputs": [
        {
          "internalType": "uint256",
          "name": "pid",
          "type": "uint256"
        }
      ],
      "name": "getp",
      "outputs": [
        {
          "internalType": "uint256",
          "name": "",
          "type": "uint256"
        }
      ],
      "stateMutability": "view",
      "type": "function",
      "constant": true
    },
    {
      "inputs": [
        {
          "internalType": "uint256",
          "name": "pid",
          "type": "uint256"
        },
        {
          "internalType": "address",
          "name": "_buyer",
          "type": "address"
        },
        {
          "internalType": "string",
          "name": "name",
          "type": "string"
        },
        {
          "internalType": "uint40",
          "name": "ph",
          "type": "uint40"
        },
        {
          "internalType": "string",
          "name": "_email",
          "type": "string"
        },
        {
          "internalType": "string",
          "name": "_location",
          "type": "string"
        },
        {
          "internalType": "address",
          "name": "logi",
          "type": "address"
        }
      ],
      "name": "purchase",
      "outputs": [],
      "stateMutability": "payable",
      "type": "function",
      "payable": true
    },
    {
      "inputs": [
        {
          "internalType": "uint256",
          "name": "pid",
          "type": "uint256"
        }
      ],
      "name": "orderdetails",
      "outputs": [
        {
          "internalType": "bool",
          "name": "",
          "type": "bool"
        },
        {
          "internalType": "uint256",
          "name": "",
          "type": "uint256"
        },
        {
          "internalType": "address",
          "name": "",
          "type": "address"
        },
        {
          "internalType": "string",
          "name": "",
          "type": "string"
        },
        {
          "internalType": "address",
          "name": "",
          "type": "address"
        },
        {
          "internalType": "bool",
          "name": "",
          "type": "bool"
        }
      ],
      "stateMutability": "nonpayable",
      "type": "function"
    },
    {
      "inputs": [
        {
          "internalType": "uint256",
          "name": "pid",
          "type": "uint256"
        }
      ],
      "name": "buyerdetails",
      "outputs": [
        {
          "internalType": "uint256",
          "name": "",
          "type": "uint256"
        },
        {
          "internalType": "string",
          "name": "",
          "type": "string"
        },
        {
          "internalType": "uint40",
          "name": "",
          "type": "uint40"
        },
        {
          "internalType": "string",
          "name": "",
          "type": "string"
        },
        {
          "internalType": "string",
          "name": "",
          "type": "string"
        }
      ],
      "stateMutability": "view",
      "type": "function",
      "constant": true
    },
    {
      "inputs": [
        {
          "internalType": "uint256",
          "name": "oid",
          "type": "uint256"
        }
      ],
      "name": "logistic_details",
      "outputs": [
        {
          "internalType": "bool",
          "name": "",
          "type": "bool"
        }
      ],
      "stateMutability": "view",
      "type": "function",
      "constant": true
    },
    {
      "inputs": [
        {
          "internalType": "uint256",
          "name": "oid",
          "type": "uint256"
        }
      ],
      "name": "approve_delivary",
      "outputs": [
        {
          "internalType": "bool",
          "name": "",
          "type": "bool"
        }
      ],
      "stateMutability": "nonpayable",
      "type": "function"
    },
    {
      "inputs": [
        {
          "internalType": "uint256",
          "name": "oid",
          "type": "uint256"
        }
      ],
      "name": "a_d",
      "outputs": [
        {
          "internalType": "bool",
          "name": "",
          "type": "bool"
        }
      ],
      "stateMutability": "view",
      "type": "function",
      "constant": true
    }
  ],
  "bytecode": "0x60806040523480156200001157600080fd5b5060405162002241380380620022418339818101604052810190620000379190620000e9565b80600560006101000a81548173ffffffffffffffffffffffffffffffffffffffff021916908373ffffffffffffffffffffffffffffffffffffffff160217905550506200011b565b600080fd5b600073ffffffffffffffffffffffffffffffffffffffff82169050919050565b6000620000b18262000084565b9050919050565b620000c381620000a4565b8114620000cf57600080fd5b50565b600081519050620000e381620000b8565b92915050565b6000602082840312156200010257620001016200007f565b5b60006200011284828501620000d2565b91505092915050565b612116806200012b6000396000f3fe6080604052600436106100c65760003560e01c80638f29695a1161007f578063db3d1cba11610059578063db3d1cba146102bf578063dc92000f146102fc578063eafd4bbd14610325578063ff4c42fc14610366576100cd565b80638f29695a146102355780638f8840ae1461025e578063a85c38ef1461027a576100cd565b8063036c7370146100cf57806307ff78081461010c5780632ef6ac6614610149578063622d2347146101745780637acc0b20146101b65780637fedd783146101f8576100cd565b366100cd57005b005b3480156100db57600080fd5b506100f660048036038101906100f19190611487565b6103a7565b60405161010391906114cf565b60405180910390f35b34801561011857600080fd5b50610133600480360381019061012e9190611487565b610495565b60405161014091906114cf565b60405180910390f35b34801561015557600080fd5b5061015e610539565b60405161016b91906114f9565b60405180910390f35b34801561018057600080fd5b5061019b60048036038101906101969190611487565b61053f565b6040516101ad969594939291906115e5565b60405180910390f35b3480156101c257600080fd5b506101dd60048036038101906101d89190611487565b6107a4565b6040516101ef9695949392919061164d565b60405180910390f35b34801561020457600080fd5b5061021f600480360381019061021a9190611487565b61091d565b60405161022c91906114cf565b60405180910390f35b34801561024157600080fd5b5061025c600480360381019061025791906117f1565b61094a565b005b610278600480360381019061027391906118e5565b610afe565b005b34801561028657600080fd5b506102a1600480360381019061029c9190611487565b610d5e565b6040516102b6999897969594939291906119ea565b60405180910390f35b3480156102cb57600080fd5b506102e660048036038101906102e19190611487565b610faf565b6040516102f391906114f9565b60405180910390f35b34801561030857600080fd5b50610323600480360381019061031e9190611a8c565b610fcf565b005b34801561033157600080fd5b5061034c60048036038101906103479190611487565b611012565b60405161035d959493929190611ab9565b60405180910390f35b34801561037257600080fd5b5061038d60048036038101906103889190611487565b6111fc565b60405161039e959493929190611b1a565b60405180910390f35b600081600254146103ed576040517f08c379a00000000000000000000000000000000000000000000000000000000081526004016103e490611bce565b60405180910390fd5b600115156103fa83610495565b15151461043c576040517f08c379a000000000000000000000000000000000000000000000000000000000815260040161043390611c3a565b60405180910390fd5b600180600084815260200190815260200160002060070160146101000a81548160ff0219169083151502179055506001600083815260200190815260200160002060070160149054906101000a900460ff169050919050565b60008060009054906101000a900473ffffffffffffffffffffffffffffffffffffffff1673ffffffffffffffffffffffffffffffffffffffff16639e5bca0c836040518263ffffffff1660e01b81526004016104f191906114f9565b602060405180830381865afa15801561050e573d6000803e3d6000fd5b505050506040513d601f19601f820116820180604052508101906105329190611c86565b9050919050565b60045481565b600080600060606000806001600254101561058f576040517f08c379a000000000000000000000000000000000000000000000000000000000815260040161058690611bce565b60405180910390fd5b6001151561059c88610495565b1515146105de576040517f08c379a00000000000000000000000000000000000000000000000000000000081526004016105d590611c3a565b60405180910390fd5b600180600089815260200190815260200160002060000160006101000a81548160ff02191690831515021790555060006003600089815260200190815260200160002060000160006101000a81548160ff0219169083151502179055506001600088815260200190815260200160002060000160009054906101000a900460ff166001600089815260200190815260200160002060010154600160008a815260200190815260200160002060020160009054906101000a900473ffffffffffffffffffffffffffffffffffffffff16600160008b8152602001908152602001600020600601600160008c815260200190815260200160002060070160009054906101000a900473ffffffffffffffffffffffffffffffffffffffff166107038c610495565b82805461070f90611ce2565b80601f016020809104026020016040519081016040528092919081815260200182805461073b90611ce2565b80156107885780601f1061075d57610100808354040283529160200191610788565b820191906000526020600020905b81548152906001019060200180831161076b57829003601f168201915b5050505050925095509550955095509550955091939550919395565b60036020528060005260406000206000915090508060000160009054906101000a900460ff16908060000160019054906101000a900473ffffffffffffffffffffffffffffffffffffffff169080600101805461080090611ce2565b80601f016020809104026020016040519081016040528092919081815260200182805461082c90611ce2565b80156108795780601f1061084e57610100808354040283529160200191610879565b820191906000526020600020905b81548152906001019060200180831161085c57829003601f168201915b50505050509080600201549080600301805461089490611ce2565b80601f01602080910402602001604051908101604052809291908181526020018280546108c090611ce2565b801561090d5780601f106108e25761010080835404028352916020019161090d565b820191906000526020600020905b8154815290600101906020018083116108f057829003601f168201915b5050505050908060040154905086565b60006001600083815260200190815260200160002060070160149054906101000a900460ff169050919050565b600560009054906101000a900473ffffffffffffffffffffffffffffffffffffffff1673ffffffffffffffffffffffffffffffffffffffff163373ffffffffffffffffffffffffffffffffffffffff16146109da576040517f08c379a00000000000000000000000000000000000000000000000000000000081526004016109d190611d5f565b60405180910390fd5b600460008154809291906109ed90611dae565b91905055506040518060c001604052806001151581526020013373ffffffffffffffffffffffffffffffffffffffff16815260200184815260200183815260200182815260200160045481525060036000600454815260200190815260200160002060008201518160000160006101000a81548160ff02191690831515021790555060208201518160000160016101000a81548173ffffffffffffffffffffffffffffffffffffffff021916908373ffffffffffffffffffffffffffffffffffffffff1602179055506040820151816001019081610acb9190611fa2565b50606082015181600201556080820151816003019081610aeb9190611fa2565b5060a08201518160040155905050505050565b600115156003600089815260200190815260200160002060000160009054906101000a900460ff16151514610b68576040517f08c379a0000000000000000000000000000000000000000000000000000000008152600401610b5f906120c0565b60405180910390fd5b60026000815480929190610b7b90611dae565b91905055506040518061012001604052806000151581526020018881526020018773ffffffffffffffffffffffffffffffffffffffff1681526020018681526020018564ffffffffff1681526020018481526020018381526020018273ffffffffffffffffffffffffffffffffffffffff1681526020016000151581525060016000600254815260200190815260200160002060008201518160000160006101000a81548160ff0219169083151502179055506020820151816001015560408201518160020160006101000a81548173ffffffffffffffffffffffffffffffffffffffff021916908373ffffffffffffffffffffffffffffffffffffffff1602179055506060820151816003019081610c949190611fa2565b5060808201518160040160006101000a81548164ffffffffff021916908364ffffffffff16021790555060a0820151816005019081610cd39190611fa2565b5060c0820151816006019081610ce99190611fa2565b5060e08201518160070160006101000a81548173ffffffffffffffffffffffffffffffffffffffff021916908373ffffffffffffffffffffffffffffffffffffffff1602179055506101008201518160070160146101000a81548160ff02191690831515021790555090505050505050505050565b60016020528060005260406000206000915090508060000160009054906101000a900460ff16908060010154908060020160009054906101000a900473ffffffffffffffffffffffffffffffffffffffff1690806003018054610dc090611ce2565b80601f0160208091040260200160405190810160405280929190818152602001828054610dec90611ce2565b8015610e395780601f10610e0e57610100808354040283529160200191610e39565b820191906000526020600020905b815481529060010190602001808311610e1c57829003601f168201915b5050505050908060040160009054906101000a900464ffffffffff1690806005018054610e6590611ce2565b80601f0160208091040260200160405190810160405280929190818152602001828054610e9190611ce2565b8015610ede5780601f10610eb357610100808354040283529160200191610ede565b820191906000526020600020905b815481529060010190602001808311610ec157829003601f168201915b505050505090806006018054610ef390611ce2565b80601f0160208091040260200160405190810160405280929190818152602001828054610f1f90611ce2565b8015610f6c5780601f10610f4157610100808354040283529160200191610f6c565b820191906000526020600020905b815481529060010190602001808311610f4f57829003601f168201915b5050505050908060070160009054906101000a900473ffffffffffffffffffffffffffffffffffffffff16908060070160149054906101000a900460ff16905089565b600060036000838152602001908152602001600020600201549050919050565b806000806101000a81548173ffffffffffffffffffffffffffffffffffffffff021916908373ffffffffffffffffffffffffffffffffffffffff16021790555050565b60006060600060606000806003600088815260200190815260200160002060000160009054906101000a900460ff16905060006003600089815260200190815260200160002060000160019054906101000a900473ffffffffffffffffffffffffffffffffffffffff1690506000600360008a815260200190815260200160002060010180546110a190611ce2565b80601f01602080910402602001604051908101604052809291908181526020018280546110cd90611ce2565b801561111a5780601f106110ef5761010080835404028352916020019161111a565b820191906000526020600020905b8154815290600101906020018083116110fd57829003601f168201915b505050505090506000600360008b81526020019081526020016000206002015490506000600360008c8152602001908152602001600020600301805461115f90611ce2565b80601f016020809104026020016040519081016040528092919081815260200182805461118b90611ce2565b80156111d85780601f106111ad576101008083540402835291602001916111d8565b820191906000526020600020905b8154815290600101906020018083116111bb57829003601f168201915b50505050509050848383838799509950995099509950505050505091939590929450565b6000606060006060806001600087815260200190815260200160002060010154600160008881526020019081526020016000206003016001600089815260200190815260200160002060040160009054906101000a900464ffffffffff16600160008a8152602001908152602001600020600501600160008b815260200190815260200160002060060183805461129290611ce2565b80601f01602080910402602001604051908101604052809291908181526020018280546112be90611ce2565b801561130b5780601f106112e05761010080835404028352916020019161130b565b820191906000526020600020905b8154815290600101906020018083116112ee57829003601f168201915b5050505050935081805461131e90611ce2565b80601f016020809104026020016040519081016040528092919081815260200182805461134a90611ce2565b80156113975780601f1061136c57610100808354040283529160200191611397565b820191906000526020600020905b81548152906001019060200180831161137a57829003601f168201915b505050505091508080546113aa90611ce2565b80601f01602080910402602001604051908101604052809291908181526020018280546113d690611ce2565b80156114235780601f106113f857610100808354040283529160200191611423565b820191906000526020600020905b81548152906001019060200180831161140657829003601f168201915b505050505090509450945094509450945091939590929450565b6000604051905090565b600080fd5b600080fd5b6000819050919050565b61146481611451565b811461146f57600080fd5b50565b6000813590506114818161145b565b92915050565b60006020828403121561149d5761149c611447565b5b60006114ab84828501611472565b91505092915050565b60008115159050919050565b6114c9816114b4565b82525050565b60006020820190506114e460008301846114c0565b92915050565b6114f381611451565b82525050565b600060208201905061150e60008301846114ea565b92915050565b600073ffffffffffffffffffffffffffffffffffffffff82169050919050565b600061153f82611514565b9050919050565b61154f81611534565b82525050565b600081519050919050565b600082825260208201905092915050565b60005b8381101561158f578082015181840152602081019050611574565b60008484015250505050565b6000601f19601f8301169050919050565b60006115b782611555565b6115c18185611560565b93506115d1818560208601611571565b6115da8161159b565b840191505092915050565b600060c0820190506115fa60008301896114c0565b61160760208301886114ea565b6116146040830187611546565b818103606083015261162681866115ac565b90506116356080830185611546565b61164260a08301846114c0565b979650505050505050565b600060c08201905061166260008301896114c0565b61166f6020830188611546565b818103604083015261168181876115ac565b905061169060608301866114ea565b81810360808301526116a281856115ac565b90506116b160a08301846114ea565b979650505050505050565b600080fd5b600080fd5b7f4e487b7100000000000000000000000000000000000000000000000000000000600052604160045260246000fd5b6116fe8261159b565b810181811067ffffffffffffffff8211171561171d5761171c6116c6565b5b80604052505050565b600061173061143d565b905061173c82826116f5565b919050565b600067ffffffffffffffff82111561175c5761175b6116c6565b5b6117658261159b565b9050602081019050919050565b82818337600083830152505050565b600061179461178f84611741565b611726565b9050828152602081018484840111156117b0576117af6116c1565b5b6117bb848285611772565b509392505050565b600082601f8301126117d8576117d76116bc565b5b81356117e8848260208601611781565b91505092915050565b60008060006060848603121561180a57611809611447565b5b600084013567ffffffffffffffff8111156118285761182761144c565b5b611834868287016117c3565b935050602061184586828701611472565b925050604084013567ffffffffffffffff8111156118665761186561144c565b5b611872868287016117c3565b9150509250925092565b61188581611534565b811461189057600080fd5b50565b6000813590506118a28161187c565b92915050565b600064ffffffffff82169050919050565b6118c2816118a8565b81146118cd57600080fd5b50565b6000813590506118df816118b9565b92915050565b600080600080600080600060e0888a03121561190457611903611447565b5b60006119128a828b01611472565b97505060206119238a828b01611893565b965050604088013567ffffffffffffffff8111156119445761194361144c565b5b6119508a828b016117c3565b95505060606119618a828b016118d0565b945050608088013567ffffffffffffffff8111156119825761198161144c565b5b61198e8a828b016117c3565b93505060a088013567ffffffffffffffff8111156119af576119ae61144c565b5b6119bb8a828b016117c3565b92505060c06119cc8a828b01611893565b91505092959891949750929550565b6119e4816118a8565b82525050565b600061012082019050611a00600083018c6114c0565b611a0d602083018b6114ea565b611a1a604083018a611546565b8181036060830152611a2c81896115ac565b9050611a3b60808301886119db565b81810360a0830152611a4d81876115ac565b905081810360c0830152611a6181866115ac565b9050611a7060e0830185611546565b611a7e6101008301846114c0565b9a9950505050505050505050565b600060208284031215611aa257611aa1611447565b5b6000611ab084828501611893565b91505092915050565b600060a082019050611ace60008301886114c0565b8181036020830152611ae081876115ac565b9050611aef60408301866114ea565b8181036060830152611b0181856115ac565b9050611b106080830184611546565b9695505050505050565b600060a082019050611b2f60008301886114ea565b8181036020830152611b4181876115ac565b9050611b5060408301866119db565b8181036060830152611b6281856115ac565b90508181036080830152611b7681846115ac565b90509695505050505050565b7f6e6f206f72646572730000000000000000000000000000000000000000000000600082015250565b6000611bb8600983611560565b9150611bc382611b82565b602082019050919050565b60006020820190508181036000830152611be781611bab565b9050919050565b7f6666206e6f7420626f6f6b656400000000000000000000000000000000000000600082015250565b6000611c24600d83611560565b9150611c2f82611bee565b602082019050919050565b60006020820190508181036000830152611c5381611c17565b9050919050565b611c63816114b4565b8114611c6e57600080fd5b50565b600081519050611c8081611c5a565b92915050565b600060208284031215611c9c57611c9b611447565b5b6000611caa84828501611c71565b91505092915050565b7f4e487b7100000000000000000000000000000000000000000000000000000000600052602260045260246000fd5b60006002820490506001821680611cfa57607f821691505b602082108103611d0d57611d0c611cb3565b5b50919050565b7f4e6f7420616e2073656c6c657200000000000000000000000000000000000000600082015250565b6000611d49600d83611560565b9150611d5482611d13565b602082019050919050565b60006020820190508181036000830152611d7881611d3c565b9050919050565b7f4e487b7100000000000000000000000000000000000000000000000000000000600052601160045260246000fd5b6000611db982611451565b91507fffffffffffffffffffffffffffffffffffffffffffffffffffffffffffffffff8203611deb57611dea611d7f565b5b600182019050919050565b60008190508160005260206000209050919050565b60006020601f8301049050919050565b600082821b905092915050565b600060088302611e587fffffffffffffffffffffffffffffffffffffffffffffffffffffffffffffffff82611e1b565b611e628683611e1b565b95508019841693508086168417925050509392505050565b6000819050919050565b6000611e9f611e9a611e9584611451565b611e7a565b611451565b9050919050565b6000819050919050565b611eb983611e84565b611ecd611ec582611ea6565b848454611e28565b825550505050565b600090565b611ee2611ed5565b611eed818484611eb0565b505050565b5b81811015611f1157611f06600082611eda565b600181019050611ef3565b5050565b601f821115611f5657611f2781611df6565b611f3084611e0b565b81016020851015611f3f578190505b611f53611f4b85611e0b565b830182611ef2565b50505b505050565b600082821c905092915050565b6000611f7960001984600802611f5b565b1980831691505092915050565b6000611f928383611f68565b9150826002028217905092915050565b611fab82611555565b67ffffffffffffffff811115611fc457611fc36116c6565b5b611fce8254611ce2565b611fd9828285611f15565b600060209050601f83116001811461200c5760008415611ffa578287015190505b6120048582611f86565b86555061206c565b601f19841661201a86611df6565b60005b828110156120425784890151825560018201915060208501945060208101905061201d565b8683101561205f578489015161205b601f891682611f68565b8355505b6001600288020188555050505b505050505050565b7f70726f6475637420697320616c72656164792070757263686173656400000000600082015250565b60006120aa601c83611560565b91506120b582612074565b602082019050919050565b600060208201905081810360008301526120d98161209d565b905091905056fea264697066735822122096e77ec26555522161fc5b8ca85c3ea52f81c65836745887a906df6ecc20e3b164736f6c63430008100033",
  "immutableReferences": {},
  "source": "// SPDX-License-Identifier: MIT\r\n\r\npragma solidity ^0.8.7;\r\nimport \"./logistic.sol\";\r\ncontract seller{\r\n    //defining structure with mutliple candidate variables\r\n    struct product{\r\n        bool available;\r\n        address pid;\r\n        string name;\r\n        uint price;\r\n        string  _desc;\r\n        uint productcount;\r\n\r\n    }\r\n    struct order{\r\n            bool sold;\r\n            uint pid;\r\n            address id;\r\n            string name;\r\n            uint40 phno;\r\n            string email;\r\n            string location;\r\n            address logi;\r\n            bool send_to_ff;\r\n           \r\n          }\r\n \r\n        logistic l;\r\n        mapping (uint=> order) public orders;\r\n        uint  orderCount;\r\n\r\n\r\n            mapping (uint=> product) public products;\r\n            uint public productcount;\r\n            address owner;\r\n\r\n    \r\n\r\n       constructor(address _ad){\r\n                     owner=_ad;\r\n                    }\r\n\r\n        modifier onlyOwner(){\r\n\r\n        require(msg.sender==owner, \"Not an seller\");\r\n        _;\r\n            }\r\n        function set_logistic(address ad) public {\r\n               l=logistic(payable(ad));\r\n         }\r\n        \r\n        function addProduct(string memory product_name,uint price,string memory _desc) public onlyOwner{\r\n            productcount++;\r\n            products[productcount]=product(true,msg.sender,product_name,price,_desc,productcount);\r\n\r\n        } \r\n\r\n        function viewProduct(uint id) external view returns(bool,string memory,uint,string memory,address)   {\r\n            bool s = products[id].available;\r\n            address ad = products[id].pid;\r\n            string memory name = products[id].name;\r\n            uint p = products[id].price;\r\n            string memory d=products[id]._desc;\r\n            return (s,name,p,d,ad);\r\n            \r\n        }\r\n\r\n        function getp(uint pid) external view returns (uint){\r\n            return products[pid].price;\r\n        }\r\n       \r\n\r\n\r\n\r\n        function purchase(uint pid,\r\n        address _buyer,string memory name,uint40 ph,string memory _email,string memory _location,address logi) public payable  {\r\n                require(products[pid].available==true,\"product is already purchased\");\r\n                orderCount++;\r\n                orders[orderCount]=order(false,pid,_buyer,name,ph,_email,_location,logi,false);\r\n            } \r\n\r\n        function orderdetails(uint pid) public returns(bool,\r\n        uint,address,string memory, address,bool){\r\n              require(orderCount>=1,\"no orders\");\r\n              require(logistic_details(pid)==true,\"ff not booked\");   \r\n              orders[pid].sold = true;\r\n              products[pid].available=false;\r\n           return (orders[pid].sold,orders[pid].pid,orders[pid].id,orders[pid].location,orders[pid].logi,logistic_details(pid));\r\n\r\n        }\r\n        function buyerdetails(uint pid) external  view returns(uint,string memory,uint40,string memory,string memory){\r\n               return (orders[pid].pid,orders[pid].name,orders[pid].phno,orders[pid].email,orders[pid].location);\r\n        }\r\n\r\n        function logistic_details(uint oid) public view returns(bool){\r\n\r\n            return l.ff_booked(oid);\r\n        }\r\n\r\n        function approve_delivary(uint oid) public  returns(bool) {\r\n            require(orderCount==oid,\"no orders\");\r\n            // require(orders[oid].send_to_ff==,\"already packed and delivary initiated\");\r\n           // require(orders[oid].d_initated==false,\"sent to ff\");\r\n            require(logistic_details(oid)==true,\"ff not booked\");\r\n           // require(approvecount==oid,\"seller is not initiated delivary\");\r\n            orders[oid].send_to_ff=true;\r\n           // orders[oid].d_initated = true;\r\n            return orders[oid].send_to_ff;\r\n\r\n        }\r\n\r\n        function a_d(uint oid) public view returns(bool){\r\n            return orders[oid].send_to_ff;\r\n        }\r\n\r\n        \r\n        \r\n\r\n\r\n    receive() external payable {}\r\n\r\n    fallback() external payable {}\r\n    \r\n}\r\n\r\n\r\n\r\n\r\n\r\n\r\n\r\n",
  "sourcePath": "C:\\Users\\sakha\\Projects\\logistic\\contracts\\seller.sol",
  "compiler": {
    "name": "solc",
    "version": "0.8.16+commit.07a7930e.Emscripten.clang"
  },
  "schemaVersion": "3.4.9",
  "updatedAt": "2022-10-21T07:36:45.492Z",
  "networkType": "ethereum",
  "devdoc": {
    "kind": "dev",
    "methods": {},
    "version": 1
  },
  "userdoc": {
    "kind": "user",
    "methods": {},
    "version": 1
  }
}